:020000020000FC
:1000000012C036C037C018951895189518951895D0
:10001000189535C0189530C01895189518951895ED
:10002000189518951895789404E00EBF0FE50DBF4C
:100030000AE005BF00EC0BBF0AE207BB07E109B904
:1000400006E800BD08E90AB901E009BF06E003BF00
:10005000929A939A979A10E417B915E816B96FEF28
:1000600030E050E058BB603879F0603061F1F9CF92
:1000700060E8189560E018956CB1339518954AE2E0
:1000800048BB603471F3FBCF31E052E058BB00E86D
:100090000BBF50B35078503819F06030A1F0F4CF56
:1000A0006034F9F2323039F050B35078503019F0F2
:1000B000603049F0F5CF31E05AE058BB1BD012D088
:1000C000603009F0E1CF30E000E40BBF50E258BBF4
:1000D00060E010D007D025D06038B1F26074603491
:1000E00001F2F1CF369A3699FECF71E094B185B125
:1000F00009D0089572E090E092BF13D092B780E0EB
:1001000001D00895760F5D9BFECF7CB970E009D0D9
:100110005D9BFECF8CB905D05D9BFECF9CB901D015
:10012000089524E110EF0FEF0A95F1F71A95D9F72A
:060130002A95C1F70895B5
:00000001FF
